:020000040000FA
:100000000C940D1D0C94351D0C94351D0C94351D50
:100010000C94351D0C94351D0C94351D0C94351D18
:100020000C94351D0C94351D0C94351D0C94351D08
:100030000C94351D0C94351D0C94351D0C94351DF8
:100040000C9408220C94351D0C94D6210C94B021EC
:100050000C94351D0C94351D0C94351D0C94351DD8
:100060000C9452220C94351D5A594D45005A554C4A
:10007000554E495041005A4F424F425549434C4119
:100080004E454E4B4F4D4F4E4F534F545241524998
:10009000524E554B005A49424F464647534C414CED
:1000A0004C4D424E434E454E474E534F4E50535487
:1000B000415445544954535A5A005A45414C4153AE
:1000C000425544534553494E4B454B534C534E4177
:1000D0004E4F5053524B524F5354544155535A451F
:1000E000005A414348434B47534E454E5950535293
:1000F00041524652495449005957484149530059C1
:100100005645534F4E4F52005955414E424143417F
:100110004348434B46544741474F47534B454B4950
:100120004B4F4B534B594C454D414D504E585053EE
:1001300052495254545A5A5500594F4253434B4412
:10014000414445444844534741474847494B454B40
:100150004F4B534C444C4B4D504E444E474E494EE2
:10016000544F464F505245524B52505354554B5595
:100170005255535745574C575300594E4553455ABE
:1001800000594D505400594944534B454E53504526
:1001900050535244524B52525445005945414441E8
:1001A00048414E41524153424F43484445454447DC
:1001B000474C444C4B4C4C4C4D4C504C544E535073
:1001C000535244524B534B535454495454554B5629
:1001D0004557530059424554005941415242414309
:1001E00043434B445346464749475348534B534C6C
:1001F000444C454C554D534E474E4B505050535226
:10020000445245524B524E52525445554455505704
:100210004C574E57505753575959530058595354E8
:10022000005852415900584D4153005849414E0021
:1002300058454E41005759434845534C454E444E4E
:100240004E4E535445005755445344554C4C53530C
:100250000057524150454E495400574F4144434B7B
:100260004553465347534B454B534C444C464D42E4
:100270004E474E4B4E534E544F444F464F4C4F4EAD
:100280004F534F54505352445245524B524D524E7D
:1002900052545354545356455746575300574943A5
:1002A000454348434B4445454C4552464547534BCF
:1002B000494C444C454C494C4C4C544C594D504E77
:1002C000444E454E474E494E4B4E4E4E4F4E534E6A
:1002D000595045524552595343534553485350532F
:1002E0005353545445544854535454564500574856
:1002F0004145414D415041544545454E4554455772
:10030000455949444947494D494E494F4950495239
:100310004954495A4F414F4D4F504F544F575550E4
:100320005953005745414B414C414E415242424284
:100330005344534544454B454C454D454E4550452A
:100340005245534554465448524944494C49524BEE
:10035000414C444C4B4C4C4C534C544D424D534EE1
:10036000414E444E534E5450545245524F525453A2
:1003700054544154535845595300574141434253F3
:10038000434B434F444444454449445344544459E3
:10039000455346464653465447454753484C4944BF
:1003A0004946494C494E4952495349544B414B45A2
:1003B0004B464C444C454C494C4B4C4C4C544C5982
:1003C0004D454E444E454E474E4B4E534E544E595E
:1003D00050535146524252445245524B524D524E46
:1003E00052505253525452595345534853505354F8
:1003F000544554535454554B554C555256455659E3
:1004000057415745574C5753585959530056594B14
:10041000590056554747474847534C474C4E4D5354
:100420000056544F4C005652494C4F544F554F575D
:1004300000564F41524553494449504C414C454C5C
:100440004B4C534C5452535445575300564C414413
:1004500045494F470056494145414C415342454269
:10046000534345434B444144454453454445524519
:1004700053455445574741475349494B494C414CD3
:10048000444C454C4C4D534E414E454E4F4E534EB1
:10049000544E594F4C5245524C534153455441547C
:1004A00045544F564156455649564F5A59005645A0
:1004B000414C44414550455245534741474F484DB3
:1004C000494C494E4C414C444C454C4C4E414E4499
:1004D0004E4E4E545241524252445245524E525345
:1004E000525452595354544F545358540056414344
:1004F000534445455347494753494C494E49524C4B
:10050000454C494D504E454E474E534E5452415224
:1005100045525352595345535454535455555355BA
:100520005456535753005556414541534541005584
:10053000544148455349535553005553454445523A
:10054000005552414C414F42534445445344554455
:1005500059454145534559474549434E53505353D7
:10056000415553564100555041534259444F474F0E
:100570004F4E5359544100554E4149434543494319
:100580004F4445444F445949534954495649585496
:100590004F00554D424F4D415048505350595241D4
:1005A000555300554C414E455345584C414E4155CD
:1005B00053564100554B45530055474C590055453E
:1005C0005953005544414C4F4E4F5300545A4152D9
:1005D00000545942494445454445454552455347D1
:1005E00053494E4B454D504E444E455045504F009B
:1005F00054574145414C4153415441594545494760
:10060000494E49544F53005455414E424142454290
:1006100053434B464146464654475349534C454C39
:100620004C4D504D534E414E444E454E474E534E09
:10063000595049505352445246524B524D524E53C8
:1006400048534B545354555A5A0054534152005432
:10065000524144414D414E41504154415945454517
:1006600046454B45534554455645574559455A49C6
:10067000454947494D494E494F4950495349584FBB
:10068000444F474F4E4F504F544F574F5955455574
:10069000475945595000544F4144424542494259F7
:1006A000434B434F435344444453445945414544C9
:1006B0004553455946464654465547414745474F99
:1006C0004753484F494C49544A4F4B454B4F4C4177
:1006D0004C444C454C4C4C544C554D414D424D4571
:1006E0004D494D4F4D534E454E474E494E4B4E533F
:1006F0004E594F4B4F4C4F4D4F4E4F545045504815
:100700005049504F50535241524352455249524E14
:10071000524F5252525352545259534153455348D7
:10072000535353545445544F5453554B554E5552AF
:10073000555456415645574E575357545759594F8C
:1007400059535A45005449414E4152434543484349
:100750004B435344454453445945444552455346FD
:10076000464654474547534B414B454B494B534CE9
:10077000454C4C4C534C544D454D494E414E444EC6
:10078000454E474E4B4E534E544E59504950535080
:10079000545245524C524F534854455449544F5467
:1007A00053005448414441454149414E415241540E
:1007B000415745414545454D454E454F455745599E
:1007C00049414947494E494F495249534F4D4F4E70
:1007D0004F524F5552555544554755525553005455
:1007E000454144414B414C414D4152415341544399
:1007F00048435344444449445344594544454B4574
:100800004C454D454E455245534646464C4653474A
:1008100047475347554852494C494E4C414C444C2C
:10082000454C4C4C534C544D454D504D534E444EFD
:10083000454E4E4E534E54504152415246524952EB
:100840004D524E5252534C535353545445544854A2
:100850005357535854005441414C42424249425329
:10086000425543454348434B434F43544444445308
:100870004544454C455346544753484148524947DF
:10088000494C494E495349544B414B454B494B53B5
:100890004B594C414C434C454C494C4B4C4C4D45B1
:1008A0004D494D504D534E414E454E474E484E4991
:1008B0004E4B4E4E4E534F53504150455053505552
:1008C00052415245524E524F525052535254534835
:1008D000534B5353544554485453545454555553FF
:1008E00055545641565357415753575458415849F8
:1008F00059530053594B454E4300535741424144CD
:100900004147414B414D414E41504154415945446D
:100910004545454E45594947494D495A4F424F5023
:100920004F54554D005356454E0053554241424A8F
:1009300042534348434B4444445345444552455332
:100940004554455A46494748474F475349444954F7
:100950004B484B494B534C414C4B4C554D4F4D50D4
:100960004D534D594E474E494E4B4E4E4E535045AA
:100970005050505350545153524152445245524694
:10098000534953535355535956415A495A59005391
:100990005441424147414E415041524154415741D7
:1009A000594544454D454E4550455445574559498F
:1009B00045494D49524F414F424F4C4F504F544F74
:1009C0005755425544554D554E5945595800535267
:1009D000495300535041454147414D414E415241D9
:1009E00053415441574159415A45434544454B456C
:1009F000544557494349454946494B494D494E4954
:100A00005449564F444F54525955445545554755EE
:100A10004E555200534F414B415041524241425377
:100A20004341434B43534441445346414654475347
:100A3000484F4853494C4A414B454C414C444C4526
:100A40004C494C4F4C534D414D454D534D594E45DE
:100A50004E474E534E594F4B4F4C4F4D4F4E4F50AC
:100A60004F545048505352415242524452455249B9
:100A7000524E5254534153535448544F5453554B70
:100A8000554C554D55505552555355545653574640
:100A9000574C574D574E5750575359415953005380
:100AA0004E414241474150415241574542454445DC
:100AB0004549424947495049544F424F444F474F97
:100AC000544F5755425547594500534D4545455795
:100AD000495249544F4755475552555400534C417C
:100AE0004241454147414D41504154415641574192
:100AF00059454245444545455745594944494D495D
:100B00005049544F424F454F474F504F544F575500
:100B10004255455547554D5552555400534B414745
:100B200041534154415745454547454E454F455032
:100B30004552455445574944494D494E494F4950FE
:100B4000495349544F4C55415547594559465952B7
:100B500000534A4F45005349414C414D4242425394
:100B600043454348434B435344414445444844531D
:100B7000454E455346544748474E4A4F4B414B45D7
:100B80004B484C444C454C4B4C4C4C4F4C544D41B9
:100B90004D444D494D504D534E444E454E474E48A1
:100BA0004E4B4E5350455053524552495253535356
:100BB00053545445544854535455545A56415A4525
:100BC0005A590053484144414541474148414D41EC
:100BD0004E41544157415945414544454C454D4589
:100BE000504552455345544557494D494E49504942
:100BF00052495449564F444F454F474F4F4F504F1E
:100C0000544F57554C554E55545741005345414C40
:100C1000414D414E4152415341544348434F435348
:100C2000435443594544454B454C454D454E45502D
:100C300045524553474F47534946494B494C495202
:100C400049534B414B544C414C444C454C464C4C05
:100C50004C534D454D494E414E444E454E534E54D6
:100C6000505350545241524252455246524B5252A6
:100C70005253534553485353544154485453545476
:100C8000574E5753585458595953005343414241B2
:100C9000444147414D414E4152415441574F474FC6
:100CA000504F544F5755445547554C554D55505539
:100CB00052555459450053414142414741524241E6
:100CC00042454253434B4353444144454449444FB6
:100CD000445244534645465447414745474F47537E
:100CE000475949434944494C494D494E4952495352
:100CF0004B454B494C454C4B4C4C4C504C534C5435
:100D00004C5A4D414D454D504D534E414E444E452C
:100D10004E474E4B4E534E545053524152445249FB
:100D2000524B525353455348534B535354455449D4
:100D30005544554C555456455653574E57535845A0
:100D40005953005259414C414E4153455346454B2E
:100D5000454E444F4E4F545045554E005255424516
:100D6000424942534259434B4353444444454453FC
:100D700044594544455245534645464647414753E5
:100D80004852494E495A4B484C454C594D454D5097
:100D90004D534E444E454E474E534E54525052556D
:100DA000534153455348534B53535354544854534E
:100DB00000524F4144414D414E4152424242454210
:100DC00053425442594348434B435344414444449F
:100DD000454449445345444553464C494C494E4A81
:100DE000494B454B534B594C454C464C4C4D414D52
:100DF000454D504D534D594E414E454E474E544E24
:100E00005A4F444F464F4B4F4D4F4E4F504F534FFD
:100E100054504550595241524552495254525953D7
:100E200041534553535354535954415443544554D7
:100E3000485449544C544F54535545554C554D55B1
:100E40005055545558564557455753575458495877
:100E5000595A450052494144414C41534241425341
:100E60004341434543484349434B434F435944451A
:100E70004453454C454D46454646465346544741E6
:100E8000474747534B494C454C4C4D414D454D53BD
:100E90004D554D594E414E444E454E474E4B4E5387
:100EA0004F54504550505053505453415343534561
:100EB000534B53505441544554535454545A56412F
:100EC00056455649564F56595A4100524845414594
:100ED000454F5355530052454144414B414C414DC0
:100EE000414E415041524241424542534344434B9B
:100EF000435344444445444F445345444546454B7D
:100F0000454C454E455346534654474F4753485327
:100F100049444946494B494E495349544B454C591C
:100F20004D534D594E414E444E454E4B4E4F4E53F0
:100F30004E544E594F53504F5050505353485350A6
:100F400053545441544554535542564156535753A4
:100F50000052414249434143454348434B4359446E
:100F6000454453464146454646464946544741470F
:100F700045474747494753475548534941494449DD
:100F80004B494C494E495349544A414B454B494BB7
:100F9000554C454C464D414D494D4F4D504D534E8E
:100FA000414E444E474E494E4B4E5450455053507F
:100FB000545245524B534553485350535454415443
:100FC000455448544F54535455554C554E56455618
:100FD000495653574E57535941594559535A455AF3
:100FE0005A005155414441474149415441594550A6
:100FF00045594944494D494E49504954495A4F442D
:101000004F504F5400514F50480051494E530051DA
:101010004144494944545300505941534154455364
:1010200045544943494E4C454E454F545245524F05
:10103000005055424542534345434B445344554564
:1010400052464647484753484149524A414B414B13
:10105000454B554B594C414C454C494C4B4C4C4CD9
:10106000504C534C554C594D414D504D594E414E9D
:10107000474E4B4E534E544E59504150535055527B
:10108000455249524C52525253534853535453545D
:1010900054545A59530050544148554900505349EB
:1010A000530050524144414D414F415441554159E3
:1010B00045454546454D454E45504553455845598E
:1010C000455A4947494D49534F414F424F444F4676
:1010D0004F474F4D4F4E4F4F4F504F534F564F5717
:1010E000554555485554595300504F4153434B4370
:1010F0004F4453454D45504554474F475949534B2D
:10110000454B594C454C4B4C4C4C4F4C534C544C10
:10111000594D454D4F4D504D534E444E454E474E03
:101120004B4E534E544E594F444F464F484F4B4FE2
:101130004C4F4E4F504F524F534F545045505352B7
:1011400045524B524E5254525953455348535353A0
:101150005453595445545354545546554B554C5576
:10116000525554574E575358595A5A00504C414EA5
:1011700041504154415945414542454445574558E0
:101180004945494D4F444F504F544F574F5955457E
:101190005547554D55530050494146414C414E41EC
:1011A0005343414345434B435343544544455245C0
:1011B00053455447534B414B454B494C414C454C8F
:1011C000494C4C4C594D414D504E414E454E474E69
:1011D0004B4E534E544E594F4E4F5950415045501F
:1011E0004950535059524C524E5253534153455308
:1011F00048534F53535441544854535454545955DD
:101200004D555358595A4500504841544557494C3B
:1012100049504953495A4F484F4E4F534F545554D4
:10122000595300504655490050454147414B414CA8
:10123000414E41524153415442414348434B435331
:1012400044534544454B454C454E45504552455306
:10125000474847534853494E4B454C414C454C46F3
:101260004C4C4C534C544E414E444E454E494E4BC3
:101270004E4E4E534E544F4E50455049504F505382
:1012800052455249524B524C524D524E525052546A
:1012900052555256534F535454415445545254533B
:1012A0005753005041414C414E43414345434B430A
:1012B0004F43534354435944494453474548534982
:1012C00044494B494C494E495249534C454C4C4C6E
:1012D0004D4C4F4C504C534C594D534E444E454E33
:1012E000474E534E54504150455053524152435231
:1012F000445245524B5250525252535254534553FA
:1013000048534F53535354544554485453545554CD
:10131000595541554C564556535741574B574C57C5
:101320004E57535953004F5A5A59004F5945524539
:1013300053455A004F58454E455245534944494D2F
:101340005553004F574544454E455245534C534C19
:10135000594E53524553455453004F56414C454CFA
:10136000454E45524944554D004F55434844534B13
:10137000534C444C4B4D41504150485053524E52A7
:1013800053535454535A4F004F5445534841484FB8
:10139000494349534F48544F004F534152455348D6
:1013A000414C4F5341004F524144414C414E4253F6
:1013B000425943414353444F44534547454C454E9E
:1013C000454F45534645465347594947494E4C4575
:1013D0004C5952415341545359585A4F004F504160
:1013E00048414C45434544454C454E4553504F5468
:1013F000535553004F4F4653465948534D534E4152
:101400004E534E54505352545345535954535A45C6
:101410005A59004F4E43454552455349454C594F43
:10142000535354544F55535958004F4D414E415208
:101430004255454E455249544E494F56534B004F25
:101440004C41464147415644454453445945414522
:1014500047454E454F4553474149414944494E4907
:101460004F49594C414C594D5350455641004F4BF3
:1014700041534159454845534C4152415441004F15
:10148000494B534C534C594E4B4E545345004F48C7
:1014900045444941494F4D535341004F47414D4504
:1014A000454C455245004F46415946534659004F19
:1014B000454D53004F444148414C415344534541ED
:1014C00045524553455949434945494E49534F4D66
:1014D0004F52534F594C004F4341534845544100DC
:1014E0004F42415345444553455949414945495364
:1014F00049544F454F4C4F53004F41465348554B6D
:10150000534B5952535259535454485453545900FD
:101510004E554253444546464B454C4C4D424E5326
:101520005244524C5453004E4F41414148414B416B
:101530004D424542534259434B4445444944534527
:101540004C455347474753494C49524C414C454CF5
:101550004C4C4F4D414D454D494D534E414E454EDE
:10156000474E494F424F4B4F4E4F505045524152BC
:1015700049524B524D525753455348535954415475
:10158000455454554C554E55505553555456415746
:101590004C574E5753575457595953004E49414C85
:1015A00042534345434B434F4445444944534544C8
:1015B0004546454C45534645464647484B454B49AD
:1015C0004B4F4C454C4C4C534D424D534E414E4568
:1015D00050415053524C534853495441544554532D
:1015E00058455859004E474149004E45414C4150DD
:1015F0004152415442524253434B44414449445363
:101600004544454C454D4550465347534946494C42
:101610004B534C4C4C534D414D4E4E454F4E5053F9
:1016200052445246524B524F5254534853535354C0
:10163000544554535454554B554D555456415645A5
:101640005649575357545854004E434141004E4158
:10165000414D414E4245424B42534348434C444125
:101660004453445946464741475347594946494BD5
:10167000494C494E49524C414D454D534D554E41B3
:101680004E454E474E494E534F494F53504150459A
:10169000505352415243524452455249524B52596F
:1016A0005341534854415445544C544F545355524C
:1016B0005645565959535A455A49004D5A454500C1
:1016C0004D59414C4341435345524C4F4E41524179
:1016D00053545448584F004D574148004D554348C6
:1016E000434B445346464649474747534944494C70
:1016F00049524C454C4C4D4D4D504D534D554E4718
:101700004E494E534E544F4E52415245524B524CFD
:10171000525253455348534B534F535353545445CC
:101720005449545354545A4F5A5A004D4F41494109
:101730004E415341544245425342594348434B431F
:1017400053444544494453454E45524553464F47FB
:1017500053484F4852494C49544A4F4B454B494BCB
:101760004F4C414C444C454C4C4C534C544C594DB3
:10177000454D494D534E414E474E4B4E4F4E534EA5
:10178000544E594F444F474F494F4B4F4C4F4E4F7C
:10179000504F524F534F545045505350595241524D
:1017A000445245524E524F5253525453455348534C
:1017B0004B5353535454455448544954535454541C
:1017C0005555455550555356455741574E57535803
:1017D000415941594C59535A455A4F5A5A004D4E46
:1017E0004153004D494253434143454348434B43D2
:1017F0004F435344494453454E4646474747534851
:101800004148494B454C444C454C464C4B4C4C4C48
:101810004F4C534C544D444D454D494E414E444E12
:10182000454E474E494E4B4E4E4E4F4E544E584EDF
:10183000595053524152455249524B524F525352B2
:1018400056525953435345534F535353545445548D
:10185000545459585458595A5A004D484F53004DF2
:10186000454144414C414E41534154434B445345FF
:1018700044454B45524553455446464741475349D5
:101880004E49524C414C444C4C4C534C544D454D9C
:101890004F4D534E444E454E474E4F4E534E544E71
:1018A000554F554F57524352455249524B524C5245
:1018B0005653415345534853535441544554485447
:1018C0005355535645574C57535A455A5A004D4154
:1018D00041524153424543454348434B4353435987
:1018E0004441444544534459455347454747474974
:1018F0004753484149414944494B494C494D494E58
:1019000049524A454B454B494B4F4B534C414C4533
:101910004C494C4C4C4D4C534C544D414D454D5302
:101920004E414E444E454E474E494E4E4E4F4E53FD
:101930004E584E59505352415243524452455247C9
:101940005249524A524B524C524D52535254525693
:10195000525852595341534353455348534B535391
:101960005354535554415445544854535454545962
:1019700055445549554C554E5554574B574E575253
:1019800057535849585959415945594F59535A4530
:101990005A59004C59414D4348444145534C454DDB
:1019A000454E4E4E584F4E524152455345544500B8
:1019B0004C574549004C55415542454341434543E9
:1019C00049434B43594445444F4453455346464786
:1019D000454753495349544B454C414C4C4C554D4C
:1019E000414D504D534E414E444E454E474E4B4E49
:1019F000544E59504552415245524B525353415304
:101A000048534B53545445545A56535845004C4F21
:101A100041444146414D414E42454249424F425365
:101A2000434143484349434B434F44454453445A3D
:101A3000454246544745474F475347594944494E05
:101A4000495249534B454B494C414C4C4D414D42F9
:101A50004D454E414E454E474E494F464F4B4F4DDB
:101A60004F4E4F504F524F534F5450455053524189
:101A7000524452455249524E52595345534853537A
:101A800053545441544554485449544F5453545456
:101A90005544554E55505552555355545645574536
:101AA000574E57505753575459445953004C494176
:101AB0004D414E41524153425343454348434B44A9
:101AC00041444F445345444546454E455245534590
:101AD000554645464F465447534B454C414C4C4C5C
:101AE0004F4C544C594D414D424D454D4E4D4F4D2F
:101AF000504D594E414E434E444E454E474E4B4E2F
:101B00004E4E4F4E534E544E594F4E5041504550ED
:101B10004F5053524152455249524B5341534553F2
:101B20004B535053535354544154455448545354B5
:101B3000555641564556595A41004C454144414637
:101B40004148414B414C414D414E4150415241531E
:101B50004154434844414544454B45504552455303
:101B600045544654474F47534852494149464952C4
:101B700049534B454B534B554C414D454E414E44BB
:101B80004E474E4F4E534E544F4E50535054524565
:101B90005250534153535354544154535544564156
:101BA00056455649564F565957445849585959530E
:101BB0005A5A004C4142534345434B4353435944C3
:101BC000454453445945524753485349434944496E
:101BD0004B494E49524B454B484B594C4C4C4F4D41
:101BE000414D424D454D504D534E414E444E454E54
:101BF000474E494E4B4E544E5850505053524152FE
:101C00004452455249524B524E52535345534853F6
:101C100053535454455448544954535455554455BA
:101C2000455546564156455653574B574E575359AF
:101C3000535A455A4F5A59004B59414B41524154FE
:101C4000424F45534C414C454E444E4550455445FA
:101C50005553004B564153004B55444F445545484E
:101C600045534649484E49414B554C414E414E45DE
:101C700052445249525452555441544954555A555C
:101C8000004B534152004B52414249534F43004B8A
:101C90004F414E415041534245424F4253434845C4
:101CA0004C46464841484C49534A494B414C414CAB
:101CB0004F4E444E474E4B4E534F4B50485053524D
:101CC0004152455249524F52535254525552595310
:101CD00053544F5753004B4E414741504152454595
:101CE000455749544F424F504F544F574F58554204
:101CF00055525554004B4C414E41504545494B556A
:101D000058004B494148414C4245434B444444539D
:101D10004546454C45524556464646534B454C4430
:101D20004C454C4C4C4E4C4F4C504C544E414E44F8
:101D30004E454E474E4B4E4F4E53504550505053CC
:101D400052415249524B524E52535348535353549B
:101D500054455448545356415749004B4841464115
:101D60004E4154455449534F525544004B45414E02
:101D700041534253434B44534546454B454C454ED6
:101D8000455045544653475349524B534C454C4C90
:101D90004C504C544D424D504E4E4E4F4E534E545F
:101DA000504950535054524252465249524B524E4F
:101DB000524F52525348535454415445544F545324
:101DC000574C5953004B43414C004B424152004B3E
:101DD00041414C41534253434B4359444544494587
:101DE0004445534653474F4755484E494149444956
:101DF000454946494B494C494D494E49534A414B47
:101E0000414B494B534C414C424C454C494D414D43
:101E1000454D494E414E454E474E4F4E534E544F01
:101E20004E50415048524152455249524B524C52E9
:101E30004E524F5250525452595353544154455498
:101E400048544954535459545A5641574157535979
:101E500045594F59535A49004A594E58004A55411D
:101E60004E42414245434F444444454449444F4413
:101E7000534459474147534A554B454B554C454CA4
:101E8000494C594D504E454E474E4B4E4F50455282
:101E900041524552595354544554535645004A4FA4
:101EA000414E4245424942534259434B434F4449B4
:101EB0004459454C455345594753484E494E4A4F5E
:101EC0004B454B594C454C494C4C4C534C544C593C
:101ED0004D4F4E454E474E494F4B52495253525922
:101EE0005345534853495353535954415453554BF5
:101EF00055525645574C5753594159455953004A25
:101F000049414F424242454253464647534C4C4C4E
:101F1000544D504E4B4E4E4E534E585244534D56C8
:101F20004556595A5A004A45414E41544444444941
:101F30004544454C455045524553455A464546460D
:101F400048554C4C4E414E494E4E4E4F4E534F4EBF
:101F500052455249524B5353535454455448545389
:101F600055585753004A4141504253434B44414412
:101F7000454641474147474753494C494E4B454BDE
:101F8000534D424D454D494D534E414E454E4E4E9B
:101F900059504550535244524B524C525052535345
:101FA00045535053535359544F554B555056415721
:101FB000535859594559535A595A5A00495A414B3D
:101FC00041525A590049584941004957495300491B
:101FD00056414E4152455249454F5200495552458E
:101FE000004954414C41534348454C454D004953E9
:101FF0004143414B4241424E495349544C454D5354
:102000004E414F5353495359004952414E41514556
:10201000444553494449534B534D414F4E00495059
:10202000534F00494F4E414E535441574100494E82
:10203000425943414348434C44594553455A464FFE
:1020400047414745474F475349414B534B594C59DB
:102050004E414E535249524F53545449544F0049E4
:102060004D414D484F49444D5950495053555300E7
:10207000494C4541455849414B414B534C414C53C8
:102080004C595341534500494B414E415445594FDA
:102090004E0049474144475347594C554F52004918
:1020A0004646594E49004945454500494445414544
:1020B00045454D45534C454F4C594C004943424DC5
:1020C00045444552455348534B594F4E00494242AF
:1020D00059455849444953004941474F494E4D429B
:1020E00000485944454544454E45534B454C414CA9
:1020F000454D4E5045504F50535445004857414E62
:1021000000485542454253434B454445524553458B
:1021100059464647454748474F475347594853480C
:10212000554941494349534C414C454C4B4C4C4D0E
:10213000414D454D464D504D534E474E484E4B4EEA
:10214000534E545053524C52545348534B534F5385
:10215000535453545500484F415241534158424FF4
:102160004253434B445345444552455346464747E3
:102170004748475348414853494B4B414B454B49CE
:102180004C444C454C4B4C4D4C504C534C544C597E
:102190004D414D454D4F4D534D594E444E454E4783
:1021A0004E4B4E534F444F464F4B4F4E4F504F5256
:1021B0004F54504550495053524152455249524E46
:1021C00052535254534553505353535454455453FC
:1021D000554655525554564557455746574B574CFB
:1021E0005753594159535954004849434B44454565
:1021F00044455347484B454C414C444C494C4C4C4E
:10220000544D534E444E474E534E544F49505350E5
:102210005452455348534E535353545453564559AF
:10222000415A5A0048454144414C41504152415461
:1022300042454348434B4441444944594544454C35
:102240004550465448534944494C49524C444C45E6
:102250004C4C4C4D4C4F4C504D454D504D534E44B5
:102260004E534E5450535054524152425243524492
:102270005245524C524D524E524F52525253525955
:102280005350535353545445544854535745574E41
:1022900057535953004841414641474152415342E7
:1022A00055434B4445444A44534544454D454E45AA
:1022B00053455446464654474747534841484E487D
:1022C00053494B494C494E49524A494A4A4B414B62
:1022D000454B554C454C464C494C4C4C4D4C4F4C49
:1022E000544D454D534E414E444E474E4B4E534E2A
:1022F000544F535053505552445245524B524C52E6
:102300004D524E524F5250525452565348534B53C3
:1023100050535353545445544854535544554655BB
:102320004C55545645574B574D575359535A455A88
:1023300059004759414C4D504D5352455249524F07
:1023400054455645004757454E594E004755414D57
:10235000414E41524253434B444545534646474103
:1023600049444C414C454C464C4C4C504C534C59B8
:102370004D504D534E474E4B4E535053524C524E70
:10238000525352555348535353545453565359531D
:1023900000475241424144414D414E415441564112
:1023A0005945454547454E4557455845594944497E
:1023B00047494D494E495049534954495A4F474F4F
:1023C0004B4F544F5755425545554D555300474F68
:1023D00041444146414C415341544249424F42538A
:1023E00042594453454C4552455345594646474842
:1023F000474F4A494C444C454C464C504E454E473D
:102400004E4B4E534F444F464F474F4B4F4C4F4E02
:102410004F504F524F53524152455249524D5250D4
:102420005259534853535448544F554B555456538F
:10243000565457445746574B574C574E594159538A
:1024400000474E4152415441574F57555300474C56
:102450004144414D4544454545474549454E45590B
:10246000494149424944494D49544F424F4D4F50CB
:102470004F5755455547554D5554594E00474A55A8
:1024800053004749414E424242454253444544531A
:102490004544454E45534646465447414749474FB4
:1024A00047534C414C444C4C4C544D504E414E477C
:1024B0004E4B4E4E4E4F4E534F5350535244524C30
:1024C000524E524F525252545348534D5354544506
:1024D000545356455A415A5A004748415445454974
:1024E00053004745414C414E41524154434B4453A4
:1024F0004544454B45504553455A49544C444C532B
:102500004C544D534E414E454E4F4E534E544E55E6
:102510004F474F4D4F5352455249524D52535254CB
:102520005259535454415453554D0047414245422A
:102530004942534259444544494453454145444521
:102540004C454E4553464647414745475349444904
:102550004C494E495249544A4F4B534C414C454CBF
:102560004C4C534D414D424D454D504D534D594EA0
:10257000454E474E534E544F4C5045504F5053507C
:102580005952425244524552495253525452565251
:102590005953485350535454455448545355445533
:1025A0004C554D554E555055525553564557445719
:1025B0004B57505753594559535A415A455A590048
:1025C000465542534349434B4453454C4646475373
:1025D00047554A494C4C4D454D534D594E444E4735
:1025E0004E4B4E53524C524E5252525352595343E9
:1025F000534553535354545A5A455A5A004652411C
:102600004241454147414E4150415341544155415A
:10261000594544454545514554455949424947491D
:10262000534954495A4F454F474F4D4F534F5755B4
:1026300047594500464F414C414D42534348434959
:10264000454E4553464C47534759484E4944494CDB
:10265000494E4C444C4B4C4C4E444E454E534E54BC
:102660004E5A4F444F4C4F54505352415242524491
:102670005245524B524D525453535544554C55525A
:102680005553574C585959535A5900464C41424199
:1026900047414B414D414E415041544157415841B2
:1026A000594541454445454547454D45574558459C
:1026B000594943494D494E49504952495449584F47
:1026C000424F434F454F474F504F524F574F58552A
:1026D000425545555355580046494152415442537D
:1026E00043414345434F4445444F44534546455277
:1026F000455346454649464F474F47534A494B4540
:102700004B594C414C454C4C4C4D4C4F4C534E410D
:102710004E444E454E494E4B4E4E4E4F4E535148F1
:102720005245524B524D524E525353435348534BC2
:10273000535454535454545A564558545A5A0046B4
:1027400045414C41524154434B4453454245444515
:102750004C454E4552455345544753484D485349BF
:10276000534C4C4C544D454D534E444E494E534E94
:10277000544F4452445245524D524E535353545465
:102780004154455453545455445553575359530089
:1027900046444943004641414E415342454253431A
:1027A0004543544445444F4453445946464753488F
:1027B000444853494B494C494E495249584B454C62
:1027C0004B4C4C4C584D454E444E454E474E4B4E4F
:1027D0004F4E53524152445245524C524D524F5219
:1027E00052525352545348535454455453554E55D2
:1027F000525554555856415645574E5753594559B9
:10280000535A4500455A5241524900455941534394
:102810004B44454544454E455245534E454F545211
:102820004152455259004558414D45434544455351
:1028300049544F4E504F554C004557414E454E451B
:102840005245534B535453004556414E454E455205
:102850004553455445594945494C494E4F454F53B9
:102860005659594E004555474547484B534C414FE3
:1028700049524F004554414E415341544348454EFF
:102880004845485349434E41544154495459554988
:10289000004553415545534B594D414D454E4550CB
:1028A0005952415341534553595441545300455291
:1028B000414E415344414544454B45534556474F8E
:1028C0004753485549434945494B494E49534B5352
:1028D0004D414E414E454E534E594F535253534521
:1028E00053545556594E0045504545484149434F6C
:1028F0005300454F414E4E53524C00454E434C43BE
:10290000594453455345574753494449464F4C4F03
:10291000534F575546565900454D45534555494324
:10292000494C495249544D414D494D594F535054CA
:1029300055535944595300454C414E424142454438
:1029400053454D4556465347414849494149454BF2
:10295000414B454B534C414C454C494C534C594DC4
:10296000414D4F4D534D594E414F5953415345538E
:1029700049535954535641594E00454B45444553CC
:102980004B4100454944454B534C444E414E455202
:1029900045534800454845440045474144414C4162
:1029A0004E45524753475949534D414F4E4F524F51
:1029B000530045464653545300454543484C534CF9
:1029C000594F435259564E004544414D414E4441A2
:1029D0004449444F44594545454E47454759485356
:1029E0004945494B494E49544E41554300454341A1
:1029F000444845484F48544F444F4C4F4E4F535214
:102A000055555300454242414253454E4F4E524F59
:102A1000004541434844414C454E535244524C5268
:102A20004E5250525353455354535954485453558E
:102A3000535558564500445A4F5300445941444158
:102A40004E4544455245534B454E414E4500445733
:102A5000414D0044554144414C414E415242534343
:102A6000454349434B4354444544534544454C45F1
:102A70005345544646475349544B414B454B594C9B
:102A8000454C4C4C594D414D424D504E434E454E98
:102A9000474E4B4E4E4E534E544F5350455053524B
:102AA000415245524E524F525253455348534B5345
:102AB0005454590044534F530044524142414341FE
:102AC000444147414D415041544157415945454585
:102AD00047454B45574559494249504F504F575527
:102AE0004255445547554D595300444F4142415476
:102AF00042534259434B434F435344454449444F47
:102B000044534459454B454E455245534646474527
:102B1000475347594841485349544A4F4C454C46FE
:102B20004C4C4C534C544D454D534D594E414E45D4
:102B30004E474E4E4E534F424F4B4F4C4F4D4F4EC4
:102B40004F524F53504150455053505952415242A9
:102B500052455249524B524D524F5250525252537B
:102B6000525452595345534853495353535454455F
:102B7000544854495453545955435547554B554D52
:102B8000554E55505552555455585645574457462D
:102B9000574C574E575057535754585959535A45F5
:102BA0005A5900444A494E004449414C414D414E16
:102BB000425343454348434B43544449444F44598B
:102BC00045424544454C454D45534554464646537C
:102BD00047534B414B454C4C4D454D504D534E4149
:102BE0004E454E474E4B4E4F4E534E544F4C4F4E0C
:102BF0004F52505350545245524B524C52545341E1
:102C000053435348534B53535354544154455453D3
:102C10005454545A564156455649564F565358499E
:102C200058595941004448414B414C4F4C4F570073
:102C3000444541444146414C414E41524157424531
:102C4000424942534254434B434F44454544454B0C
:102C5000454D454E455045524553455445564649C8
:102C6000464F465446594753475549444946494CAF
:102C70004A414B454C414C454C464C494C4C4C4FC1
:102C80004C534C544D454D4F4D594E414E454E477A
:102C90004E494E534E544E594F4E50545245524B3E
:102CA000524D524E524F52565349534B5553564123
:102CB0005649565356595753575958595953004422
:102CC00041414C42534345434B435944414445449D
:102CD0004F4453454C455346464654474F47534847
:102CE0004C485349534B534C454C494C4C4C534C1A
:102CF000544C594D454D4E4D504D534E414E454E01
:102D0000474E494E4B4E534E5450535241524252ED
:102D10004552475249524B524E52545348534954CC
:102D2000415445544F5542554455525554564556B5
:102D3000595744574B574E5753575459535A4500B8
:102D4000435A4152004359414E5354544500435550
:102D50004241424542534453454445534646494601
:102D600049544B454C4C4C4D4C544D534E54505380
:102D70005242524452455246524C524E5252525373
:102D800052545348534B5350535354455453004398
:102D90005241424147414D414E41504157415945B1
:102DA000444545454D455749414942494D494E499C
:102DB0005349544F434F474F504F5755445545552E
:102DC000535558555A00434F414C41544158424283
:102DD000425343414348434B434F44414445444994
:102DE000445344594544464646544753484E484F39
:102DF0004946494C494E495249544B454B594C411F
:102E00004C444C454C4C4C4F4C534C544C594D41FC
:102E10004D424D454D4D4D504D534E444E454E4601
:102E20004E474E494E4B4E4E4E534E544E594F46C2
:102E30004F4B4F4C4F4D4F4E4F504F534F545045AB
:102E40005053505952415244524552465249524BA6
:102E5000524D524E5250525252535254525953455F
:102E6000534853535354535954455448545354544A
:102E7000555055525645574B574C57505753575925
:102E80005841585959535A455A5900434D4F5300C8
:102E9000434C41444147414D414E415041544157BB
:102EA0004159454145464547454D454F4557494D93
:102EB000494F495049544F444F454F474F4E4F504B
:102EC0004F544F554F574F5955425545554A00435A
:102ED00049414F44454453454C47534C4C4E454F54
:102EE0004E5245524C524F53545445544F545354E0
:102EF00059564500434841444149414C414D414E9A
:102F0000414F41504152415341544156415741591B
:102F10004546454D454E4552455445564557455AFB
:102F20004941494249434944494B494E4950495313
:102F300049544956495A4F434F474F4E4F504F55AA
:102F40004F5755425547554D5552555400434541ED
:102F500053425543414345444544494553494C4CEC
:102F6000454C4C4C534C544E534E54504550535278
:102F7000455246524E524F525453535445004341CA
:102F80004153424142534341434B434D44454449DD
:102F90004453464546464745475347594944494E99
:102FA0004B454B594C454C464C494C4B4C4C4C4D6D
:102FB0004C4F4C504C564C584D414D454D494D4F42
:102FC0004D504D534E454E474E4E4E534E544E5916
:102FD0005041504550485049504F50535054524121
:102FE0005242524452455249524B524C524E524F09
:102FF00052505252525352545259534153455348CE
:103000005349534B5353535454455449544F5453B9
:103010005454545654595546554B554C554D55508E
:10302000564156455659574B5753594559530042E7
:1030300059444545534B454F4252445245524C54D6
:103040004500425541544241424F42534255434B41
:10305000444144444449444F44534646464F4753F1
:10306000484C4852494B4B454C424C4B4C4C4D46BE
:103070004D504D534E414E444E474E4B4E4E4E5387
:103080004E544F595241524252445247524B524C65
:10309000524E525052525253525452595348534B1B
:1030A00053535354535954455453545459535A5ADF
:1030B000004252414441454147414B414D414E41FF
:1030C00053415441574159454445454549454E456D
:1030D00052455445574559494149454947494B4946
:1030E0004D494E494F495349544E4F4F444F474F16
:1030F0004B4F4E4F4F4F534F5755535554555859AB
:103100004E00424F4142414B415241534154424192
:1031100042534341434B444544534459455045521F
:103120004554464647534759484F48524853494CDF
:1031300049534B454B4F4B534C414C444C454C4CE5
:103140004C4F4C544D414D424E414E444E454E47DE
:103150004E4B4E4E4E594F424F484F4B4F4C4F4D9A
:103160004F4E4F524F534F54505352415244524579
:103170005247524B524D524E525352545255534550
:103180005348534B53535441544554485453545447
:10319000554B554E5554574C5752575358595944FF
:1031A00059465947594F59535A4F00424C41424191
:1031B00044414541474148414D415441574159459A
:1031C0004245444545455445574559494E4950495E
:1031D000544F424F434F474F544F57554255455513
:1031E0004D555200424941534242424942534345A0
:1031F000444544494453454E455246464741474756
:1032000047534B454B4F4C454C494C4B4C4C4D4117
:103210004E444E454E474E494E4B4E534E544F47EB
:103220004F4C4F535244524B524C524F52525345B3
:103230005348534B53545445544F545354545A4584
:1032400000424841494154454C555400424541448F
:10325000414B414D414E4152415441554245434BF2
:103260004445445344554546454E455045524553C3
:103270004554474F4753494E4C414C474C4C4C5397
:103280004C544C594D414E444E454E494E4A4E4E7B
:103290004E534E544E5A52455247524B524D524E37
:1032A000525453535354544154455448545356590B
:1032B0005953004241414C415342414242424542EE
:1032C0005542594348434B435344454453454C4569
:1032D0005A46464654474847534853485448554928
:1032E0004C49544A414A554B454B554C444C454C2E
:1032F000494C4B4C4C4C4D4C534C554D534E434EFE
:10330000444E454E474E494E4B4E534E54505350EB
:103310005552425244524552465249524B524D52D6
:103320004E5250525252535254525953455348538D
:103330004B53535354544554485453545454555573
:1033400044554B55525744574C574E57525859595C
:10335000455953595400415A414E4F4E4F56594DBD
:1033600000415941484553494E5245555300415833
:10337000414C4544454C4553494C49534C454F4EAF
:103380000041574159444C45444545455346594BE6
:10339000534C534E534E594F4C5259004156414C89
:1033A00041534450454C455245534944494549537E
:1033B00049564F4E4F534F57004155415342454494
:1033C000494459465347594B534C414C444E454E42
:1033D000545241544F004154415045534D414F4385
:1033E0004F4B4F4D4F50544E54595541004153414E
:1033F00050415243494541485949414B5350535319
:103400004E53540041524142414B414C4152424182
:1034100042534348434F4353444144534541454439
:103420004547454C45534554455746534748474FF4
:10343000494149444945494C494E494F4953495AE4
:103440004B534C454C594D534D594E414E454E49A9
:103450004E4F4E594F4E4F57504152495345535975
:103460005445544954535459554D564F5659594C37
:10347000594E004151554100415041594544455232
:103480004553455849414F444F5350535345534F6B
:10349000545300414E414C414E41534345444944ED
:1034A0005344594553455445574741474547594962
:1034B00041494C49534B484E414E454E494E4F4E63
:1034C000534E594F414F4E4F575341534954415416
:1034D00045544954535553594100414D4148415376
:1034E000424F4259454E4552455349414944494549
:1034F0004949494C494E495249534C414D4F4F4B14
:103500004F535053555255535945594C00414C4116
:1035100045414E4150415241534159424142454239
:1035200053434F444F454345454546455245534512
:1035300057455846414649465346594741494149EE
:103540004349454946495449584B4F4B594C414CC6
:10355000494C534C584C594D414D454D534F444F98
:10356000454F4E4F4F4F575053534F5441544F5464
:1035700053554D555356415659595300414B41539C
:10358000454445454553494D494E00414A41524104
:1035900058415945450041494153444144454453EC
:1035A00047414C414C454C494C534D454D534E457C
:1035B0004E534E55524E52535254525954535455E1
:1035C00000414841424544454D49534F5900414708
:1035D0004152415345444545454E4552455347495F
:1035E00047594841494E494F4C554C594D414E4120
:1035F0004E494F474F4E5241554500414641525268
:103600004F0041454F4E524F5259004144414841AD
:103610004D414E41574441444944534459454C451A
:103620004E455949544F53525956545A45004143F7
:103630004544455245534845485949444C554D45E4
:103640004E45524554530041424143415342414249
:1036500045424942594544454C45544555455949CB
:103660004449454C454C594F535241524955545980
:1036700045595300007A7A7A7A000000000025004C
:1036800028002B00040404040404040402020202BF
:103690000202030303030303010204081020408015
:1036A0000102040810200102040810200000000894
:1036B00000020100000304070000000000000000F9
:1036C00001000200040008001000200040008000FB
:1036D00000010002000400080010002000400080EB
:1036E00000000000000000000000000000000000DA
:1036F000C912C015F912E3003005C812003A0017CC
:10370000000006002002CE12ED12240C5D230004FE
:1037100000240009C03FC0120008C0000040000C97
:103720003F0C0600DB008F00E6006920FD0007006B
:10373000FF00EF000012000A0024C80000098310F7
:10374000BB02F7008F1239000F12F9007100BD00A3
:10375000F60009121E0070243800360536213F009D
:10376000F3003F20F320ED0001123E00300C36281C
:10377000002D0015090C390000210F00030C080072
:10378000000158107820D8008E08580871008E0467
:10379000701000100E0000363000D4105010DC0005
:1037A000700186045000882078001C000420142832
:1037B000C0280C2048084909001289242005FF3F31
:1037C0007536743647362E360B360236FB35CE3517
:1037D000C13596358B357C350D35DA3493347834F4
:1037E00073340434ED33D633B9339C3381336E33C1
:1037F00061335633B3324C324132E431AB310231B2
:10380000B13042302F307E2F4D2FF42ECF2E902E00
:103810008B2EC62D8F2D4E2D452D402DBF2C302C9F
:10382000252CA82BA32BEA2AB92AB42A532A4E2ADC
:103830003B2A362A112A042AED29C829B929B22996
:103840009929942983297A2937291829FB28F228CC
:10385000E728AE2891287428652848283928262882
:103860000B280428952790273F27D8268B26342617
:10387000FD25C0252B25E224D92482247D244E2435
:103880004124CE2391234C23452332239522242205
:10389000E92156210121FC20E120D820CD20BC20A7
:1038A000AB20A6209F209220872070205F202E2012
:1038B00023201E200920EE1FE11FDC1FCF1FCA1F7F
:1038C000C51FBC1F651F261FFF1E9E1E5D1E581EA6
:1038D000CF1DCA1DC51D6C1D5B1D021DF51CD61C10
:1038E0008F1C861C811C581C531C381CB31B3A1B94
:1038F000AD1A0E1AB519B0199319CE185F185A18C7
:10390000E317DE172B17DC16D716C016BB164E169C
:103910004916EA15E5159C1527151015F914E0143C
:10392000D714B414AF14A6149B148E147F146E1401
:103930003F142A141314F413DD13A61399138813D8
:1039400069135A13431334132B132613A31228128B
:103950002312081297116C11E910A2109D109610F5
:10396000311018100F100A100510E20F510FD60E6B
:10397000CB0E540EB10D5C0D430DB60C8B0C0C0C24
:10398000C30B560B510B1C0BDD0ACA0A9F0A140A03
:10399000D309CE098F092A092509FA08F308560820
:1039A000DF07A207450796064F064A060706F005F9
:1039B000D105CC05C305BE05B905B405A30592051F
:1039C0007705660541053A052F052605ED04AE0489
:1039D00055044C0431042604210412040D047A0316
:1039E0002303EE029D025A025102460235023002C2
:1039F0002B02260221021C02D901D4019B0186015F
:103A000081017A0139010801FF00F800E100BA00E4
:103A1000950076006D006800712311241FBECFEF62
:103A2000D8E0DEBFCDBF11E0A0E0B1E0E6EEF0E50A
:103A300002C005900D92A836B107D9F724E0A8E698
:103A4000B1E001C01D92AC3EB207E1F71DE1CDE04F
:103A5000DDE104C02197FE010E944627CC30D1074A
:103A6000C9F70E94AE230C9471280C9400000895AD
:103A70000895AF92BF92CF92DF92EF92FF920F9391
:103A80001F93CF93DF936C017B018B01040F151FF4
:103A9000EB015E01AE18BF08C017D10759F069915C
:103AA000D601ED91FC910190F081E02DC6010995C0
:103AB000892B79F7C501DF91CF911F910F91FF906D
:103AC000EF90DF90CF90BF90AF900895FC01538DA1
:103AD000448D252F30E0842F90E0821B930B5417E8
:103AE00010F0CF96089501970895FC01918D828D75
:103AF000981761F0A28DAE0FBF2FB11D5D968C910E
:103B0000928D9F5F9F73928F90E008958FEF9FEF4C
:103B10000895FC01918D828D981731F0828DE80F08
:103B2000F11D858D90E008958FEF9FEF0895FC01C2
:103B3000918D228D892F90E0805C9F4F821B91098F
:103B40008F73992708958DE294E00E94971D21E0DC
:103B5000892B09F420E0822F089580E090E0892BE2
:103B600029F00E94A31D81110C9400000895FC010E
:103B7000A48DA80FB92FB11DA35ABF4F2C91848DCE
:103B800090E001968F739927848FA689B7892C932B
:103B9000A089B1898C91837080648C93938D848D7E
:103BA000981306C00288F389E02D80818F7D808381
:103BB0000895EF92FF920F931F93CF93DF93EC0141
:103BC00081E0888F9B8D8C8D98131AC0E889F989C4
:103BD000808185FF15C09FB7F894EE89FF896083C7
:103BE000E889F98980818370806480839FBF81E048
:103BF00090E0DF91CF911F910F91FF90EF9008958A
:103C0000F62E0B8D10E00F5F1F4F0F731127E02E64
:103C10008C8D8E110CC00FB607FCFACFE889F9899C
:103C2000808185FFF5CFCE010E94B71DF1CFEB8DCE
:103C3000EC0FFD2FF11DE35AFF4FF0829FB7F89470
:103C40000B8FEA89FB8980818062CFCFCF93DF938E
:103C5000EC01888D8823B9F0AA89BB89E889F989A4
:103C60008C9185FD03C0808186FD0DC00FB607FCD9
:103C7000F7CF8C9185FFF2CF808185FFEDCFCE010C
:103C80000E94B71DE9CFDF91CF91089590E0FC012C
:103C9000E455F94C2491FC01E856F94C3491FC01AF
:103CA000EC57F94CE491EE23C9F0222339F023308C
:103CB00001F1A8F4213019F1223029F1F0E0EE0FE2
:103CC000FF1FE658F94CA591B4918FB7F894EC9189
:103CD000611126C030953E233C938FBF0895273055
:103CE000A9F02830C9F0243049F7809180008F7DF9
:103CF00003C0809180008F7780938000DFCF84B5F0
:103D00008F7784BDDBCF84B58F7DFBCF8091B000F2
:103D10008F778093B000D2CF8091B0008F7DF9CFA4
:103D20003E2BDACF3FB7F8948091D1019091D20128
:103D3000A091D301B091D40126B5A89B05C02F3F17
:103D400019F00196A11DB11D3FBFBA2FA92F982FC1
:103D50008827BC01CD01620F711D811D911D42E0BC
:103D6000660F771F881F991F4A95D1F708958F9284
:103D70009F92AF92BF92CF92DF92EF92FF924B0150
:103D80005C010E94921E6B017C010E94921E6C19C4
:103D90007D098E099F09683E734081059105A8F34E
:103DA00021E0821A9108A108B10888EEC80E83E0CC
:103DB000D81EE11CF11C81149104A104B10429F75F
:103DC000FF90EF90DF90CF90BF90AF909F908F903B
:103DD00008952091A901260F3327331F2132310581
:103DE000ECF420910304FC0190E080E0243069F0C1
:103DF00082E00895A091A9012191AC0147575E4F3F
:103E0000A40FB52FB11D2C930196861798F38091BE
:103E1000A901680F6093A90180E0089581E00895E9
:103E20001092030481E0809302041092DD0361E0AC
:103E300082E10E94461E61E083E10E94461EE9EB9A
:103E4000F0E080818E7F808380818D7F808388E415
:103E50008093B80085E48093BC000895CF93DF93EE
:103E600091E0909388018823B9F0C091B800D09177
:103E7000BA008091BC008A7B8093BC0060E082E144
:103E80000E94461E60E083E10E94461E0E94101FB1
:103E9000D093BA00C093B800DF91CF9108958F926C
:103EA0009F92AF92BF92CF92DF92EF92FF920F93C9
:103EB0001F93CF93DF93D0912C04D13208F0D7C059
:103EC000182FC0912B040E94921E6B017C018091DF
:103ED000030481116BC082E08093030410930204F9
:103EE0008FEF8093010410920004D093FF03ABE0A6
:103EF000B4E0EFEDF3E080E0D81391C01092DE0360
:103F00008091DE03CC0FC82BC093DE038091DD03CC
:103F1000813009F088C01092DD030E94921E6B016F
:103F20007C018091DE038093BB0080910504909119
:103F30000604A0910704B0910804892B8A2B8B2BCF
:103F4000A1F00E94921E0091050410910604209198
:103F50000704309108046C197D098E099F09061722
:103F600017072807390708F442C08091BC0083FD79
:103F7000D8CF85EC8093BC000E94921E6B017C011F
:103F800080910304823009F450C0809101048F3F76
:103F900009F46FC080910104803209F46CC08091F3
:103FA0000104803309F469C084E026C080910504CF
:103FB00090910604A0910704B0910804892B8A2BE4
:103FC0008B2B09F484CF0E94921E80900504909060
:103FD0000604A0900704B09008046C197D098E09AE
:103FE0009F0986169706A806B90608F070CF80913B
:103FF00004040E942E1F85E010920A0410922C04E3
:1040000010920904DF91CF911F910F91FF90EF90D3
:10401000DF90CF90BF90AF909F908F9008959D912B
:1040200091938F5F69CF85EEA5CF80910504909124
:104030000604A0910704B0910804892B8A2B8B2BCE
:1040400009F49ECF0E94921E00910504109106046F
:1040500020910704309108046C197D098E099F098D
:10406000061717072807390708F08ACFC0CF81E065
:10407000C3CF80E0C1CF82E0BFCF83E0BDCFCF937D
:10408000DF93EC018B818823A1F0888191E09093EC
:10409000090480932B0410920A0410922C0481E0EE
:1040A0000E944F1F91E0811190E0892FDF91CF9105
:1040B00008951092DA011092D90110920A04109218
:1040C0002C040E94101F87E39DE19093D6018093FA
:1040D000D50188E39DE19093D8018093D70181E0D9
:1040E0008B83CE010E943F20982F8111CECFDDCF50
:1040F0000895E091DA018091D901E81730F4F0E0F9
:10410000E859FE4F808190E008958FEF9FEF08956A
:104110009091DA018091D9012FEF3FEF981748F481
:10412000E92FF0E0E859FE4F208130E09F5F909347
:10413000DA01C90108958091D9019091DA01891BB2
:10414000990B0895CF92DF92EF92FF920F931F93F6
:10415000CF93DF937C01CB018A01209109042223B4
:1041600089F0EB016B01C40ED51ECC15DD0569F09D
:104170006991D701ED91FC910190F081E02DC7018B
:104180000995F3CF642F0E94E91EC801DF91CF91FA
:104190001F910F91FF90EF90DF90CF900895CF93F4
:1041A000DF931F92CDB7DEB76983209109042223E4
:1041B000F9F020912C04203258F021E030E0FC018D
:1041C0003383228390E080E00F90DF91CF910895B8
:1041D00080910A04E82FF0E0E55FFB4F998190831E
:1041E0008F5F80930A0480932C0481E090E0ECCFF1
:1041F00061E0CE0101960E94E91EF7CF90E080E0D9
:104200000895CF93DF93DC0114962D913C912417F0
:10421000350710F490E01EC0EA01FC018181928113
:10422000208131E03093090420932B0410920A047A
:1042300010922C04DC01ED91FC910280F381E02DC1
:104240000995C817D90731F781E00E944F1F91E007
:104250008111E0CF892FDF91CF910895CF93DF9324
:10426000CDB7DEB761970FB6F894DEBF0FBECDBFF6
:104270001982A6EDB4E0FE013196BF019C91119622
:104280008C911197129691838283329684E0A63E98
:10429000B807A1F741E150E08091E6049091E7046E
:1042A0000E94012161960FB6F894DEBF0FBECDBF0C
:1042B000DF91CF910895CF93DF93FC01019000200F
:1042C000E9F73197AF01481B590BBC018DE294E02F
:1042D0000E94391DEC0142E050E06EE271E08DE297
:1042E00094E00E94391D8C0F9D1FDF91CF9108959E
:1042F00085ED8093BC008091050490910604A09107
:104300000704B09108040796A11DB11D23E0B695DE
:10431000A795979587952A95D1F72091BC0024FD04
:1043200003C01092030408954091050450910604BF
:104330006091070470910804452B462B472B69F3C5
:104340000097A105B10541F02AE22A95F1F700C0D6
:104350000197A109B109E1CF809104040C942E1FAB
:104360001F920F920FB60F9211242F933F934F93EA
:104370005F936F937F938F939F93AF93BF93EF93CD
:10438000FF938DE294E00E94B71DFF91EF91BF91E2
:10439000AF919F918F917F916F915F914F913F91DD
:1043A0002F910F900FBE0F901F9018951F920F9294
:1043B0000FB60F9211242F938F939F93EF93FF9338
:1043C000E0913D04F0913E048081E0914304F0913E
:1043D000440482FD1BC09081809146048F5F8F73DF
:1043E00020914704821741F0E0914604F0E0E35D3C
:1043F000FB4F958F80934604FF91EF919F918F9192
:104400002F910F900FBE0F901F9018958081F4CFC1
:104410001F920F920FB60F9211242F933F938F93F9
:104420009F93AF93BF938091CD019091CE01A091C6
:10443000CF01B091D0013091CC0123E0230F2D3773
:1044400058F50196A11DB11D2093CC018093CD019B
:104450009093CE01A093CF01B093D0018091D10170
:104460009091D201A091D301B091D4010196A11DE8
:10447000B11D8093D1019093D201A093D301B09349
:10448000D401BF91AF919F918F913F912F910F9048
:104490000FBE0F901F90189526E8230F0296A11DBE
:1044A000B11DD2CF1F920F920FB60F9211242F93EE
:1044B0003F934F935F936F937F938F939F93AF93AC
:1044C000BF93EF93FF938091B900887F803609F402
:1044D0004AC0F0F5883209F4A7C018F5803109F414
:1044E0009BC0B8F4882309F4F9C0883009F494C05B
:1044F000FF91EF91BF91AF919F918F917F916F91BC
:104500005F914F913F912F910F900FBE0F901F9091
:104510001895883109F488C0803251F780930104DE
:1045200014C0803409F49DC040F48033B9F388335B
:10453000F9F68093010485ECB0C0803509F485C09C
:10454000883509F496C0883499F60E947821D0CF36
:10455000883909F48CC038F5883729F050F488364A
:1045600011F0803729F683E0809303041092CB0189
:1045700057C0883809F47BC0803919F0803809F0B9
:10458000B7CF8091CB01803208F071C0E091CB01B0
:1045900081E08E0F8093CB018091BB00F0E0E55568
:1045A000FE4F80833DC0803B39F0E0F4803A09F44F
:1045B00079C0883A09F09CCF84E08093030410927C
:1045C000AA011092A901E091D501F091D6010995B7
:1045D0008091A90181110FC081E08093A9011092FF
:1045E000890109C0803C09F4A6CF883C09F4A3CF17
:1045F000883B09F07DCFE091AA0181E08E0F809386
:10460000AA01F0E0E757FE4F80818093BB009091B4
:10461000AA018091A90129C08091DE038093BB008B
:1046200085EC8093BC0064CF909100048091FF03DF
:10463000981758F5E091000481E08E0F80930004F4
:10464000F0E0E152FC4F8081E9CFE091000481E08D
:104650008E0F809300048091BB00F0E0E152FC4F8C
:104660008083909100048091FF039817C8F285E839
:10467000D8CFE091000481E08E0F809300048091F8
:10468000BB00F0E0E152FC4F808380910204811175
:104690005CCF81E08093DD0384EA8093BC001092BC
:1046A000030426CF85EC8093BC0010920304809114
:1046B000CB01803230F4E091CB01F0E0E555FE4FC4
:1046C00010826091CB0170E0E091D701F091D801A8
:1046D0008BEA91E009951092CB010ACF1092010468
:1046E00034CFEDE2F4E01382128288EE93E0A0E092
:1046F000B0E084839583A683B7832EE031E03183D5
:10470000208325EC30E03587248724EC30E03787A0
:10471000268720EC30E0318B208B21EC30E0338B8E
:10472000228B22EC30E0358B248B26EC30E0378B6B
:10473000268B118E128E138E148EEAECF4E0138207
:10474000128284839583A683B78380E291E091836C
:1047500080831092E7041092E6040895CF93DF93CC
:10476000CDB7DEB72A970FB6F894DEBF0FBECDBF28
:10477000789484B5826084BD84B5816084BD85B53C
:10478000826085BD85B5816085BD80916E00816048
:1047900080936E00109281008091810082608093EE
:1047A00081008091810081608093810080918000F0
:1047B0008160809380008091B10084608093B1001B
:1047C0008091B00081608093B00080917A00846015
:1047D00080937A0080917A00826080937A00809141
:1047E0007A00816080937A0080917A00806880935B
:1047F0007A001092C100E0913D04F0913E0482E005
:104800008083E0913904F0913A041082E0913B04F6
:10481000F0913C048FEC808310924504E0914104B8
:10482000F091420486E08083E0913F04F0914004DF
:10483000808180618083E0913F04F0914004808119
:1048400088608083E0913F04F0914004808180681B
:104850008083E0913F04F091400480818F7D8083CC
:1048600068EC70E080E090E00E94B71E81E391E088
:104870000E945B218AE391E00E945B2180E48093A7
:104880007C0080917A00806480937A0080917A0025
:1048900086FDFCCF6091780070917900072E000CA6
:1048A000880B990B611571058105910511F00E9426
:1048B000D3268091DB019091DC0101969093DC017D
:1048C0008093DB0102972CF08EE491E00E945B2143
:1048D000FFCF8091E6049091E704009711F00E94C9
:1048E000E82786E090E00E944C278C0180E7D80101
:1048F0008C938AEC94E012969C938E931197139666
:104900001C92139780E290E015969C938E931497D7
:104910001093E7040093E6041092DA011092D90193
:1049200010920A0410922C040E94101F87E39DE14C
:104930009093D6018093D50188E39DE19093D801AF
:104940008093D70181E0F8018383C8010E943F2052
:10495000882309F449C081E28E8341E050E0BE0122
:104960006A5F7F4F8091E6049091E7040E940121E5
:104970001092D7041092D6041092D9041092D80441
:104980001092DB041092DA041092DD041092DC0421
:104990001092DF041092DE041092E1041092E00401
:1049A0001092E3041092E2041092E5041092E404E1
:1049B0000E942E2181E8898341E050E0BE016F5FB3
:1049C0007F4F8091E6049091E7040E9401218FEED1
:1049D000898341E050E0BE016F5F7F4F8091E60424
:1049E0009091E7040E9401211092DD041092DC04F2
:1049F0000FEF1FEF1093D7040093D6040E942E21CF
:104A000068EC70E080E090E00E94B71E1092D7043E
:104A10001092D6041093D9040093D8040E942E213A
:104A200068EC70E080E090E00E94B71E1092D9041C
:104A30001092D8041093DB040093DA040E942E2114
:104A400068EC70E080E090E00E94B71E1092DB04FA
:104A50001092DA041093DD040093DC040E942E21EE
:104A600068EC70E080E090E00E94B71E1092D704DE
:104A70001092D6041092D9041092D8041092DB043C
:104A80001092DA041092DD041092DC041092DF041C
:104A90001092DE041092E1041092E0041092E304FC
:104AA0001092E2041092E5041092E4040E942E2178
:104AB000ECE4F7E3859194919093D9048093D80422
:104AC000E8E5F7E3859194919093DB048093DA0411
:104AD000EEE6F7E3859194919093DD048093DC04F6
:104AE0000E942E2164EF71E080E090E00E94B71EEA
:104AF0006BE2862E99249394A12CB12C70E2F72EB0
:104B0000E4E04E2E512C612C712C0E948426A501CC
:104B100094010E94E3266F5F7F4F8F4F9F4FFB01F1
:104B2000EE0FFF1FE054F84C659174918DED91E00C
:104B30000E94DC260DED11E0D8010D900020E9F770
:104B40008D01005E1140169507950F5F1F4F82E0A3
:104B500090E0A0E0B0E00330110588F00E948426C8
:104B600030E020E0A90198012250310941095109A2
:104B70000E94E326DC01CB010296A11DB11DF98242
:104B8000FA82FB82FC822091DD012E832091DE01DE
:104B90002F83FC01E352FE4F8081888781818987C2
:104BA0001A861D8204E010E00E948426A30192016F
:104BB0000E94E3269B01E1E0F0E0EC0FFD1FE60F11
:104BC000F71F8081803281F786E090E08C0F9D1F77
:104BD000280F391FD9018C918083CE0101960E9444
:104BE0005B21E981F0E0EE0FFF1FE054F94C859165
:104BF00094919093D7048093D604EA81F0E0EE0F6D
:104C0000FF1FE054F94C859194919093D9048093BF
:104C1000D804EB81F0E0EE0FFF1FE054F94C8591D2
:104C200094919093DB048093DA04EC81F0E0EE0F32
:104C3000FF1FE054F94C859194919093DD0480938B
:104C4000DC040E942E2164EF71E080E090E00E947D
:104C5000B71E0150110909F0A7CF80E391E00E942F
:104C60005B216CED75E080E090E00E94B71E4DCFB7
:104C70008F929F92AF92BF92CF92DF92EF92FF926C
:104C8000CF93DF93EC01688179818A819B816115E3
:104C900071058105910521F464E279ED8BE597E0DA
:104CA0002DE133EF41E050E00E94E32649015A0133
:104CB0009B01AC01A7EAB1E40E9402276B017C01D1
:104CC000ACEEB4EFA50194010E941027C60ED71ECA
:104CD000E81EF91EF7FE06C081E0C81AD108E108F7
:104CE00080E8F80AC882D982EA82FB82C701B6014D
:104CF0009F77DF91CF91FF90EF90DF90CF90BF90A3
:104D0000AF909F908F9008958F929F92AF92BF9295
:104D1000CF92DF92EF92FF926091000170910101BA
:104D20008091020190910301611571058105910542
:104D300021F464E279ED8BE597E02DE133EF41E07A
:104D400050E00E94E32649015A019B01AC01A7EA09
:104D5000B1E40E9402276B017C01ACEEB4EFA50127
:104D600094010E941027C60ED71EE81EF91EF7FEFA
:104D700006C081E0C81AD108E10880E8F80AC092AC
:104D80000001D0920101E0920201F0920301C701FB
:104D9000B6019F77FF90EF90DF90CF90BF90AF90DC
:104DA0009F908F900895609300017093010180930C
:104DB0000201909303010895FB01DC0105900D921F
:104DC0000020E1F70895052E97FB1EF400940E9441
:104DD000FA2657FD07D00E94152707FC03D04EF492
:104DE0000C94FA2650954095309521953F4F4F4FA2
:104DF0005F4F089590958095709561957F4F8F4F87
:104E00009F4F08950E943727A59F900DB49F900D46
:104E1000A49F800D911D11240895B7FF0C940227C3
:104E20000E940227821B930B0895A1E21A2EAA1B4F
:104E3000BB1BFD010DC0AA1FBB1FEE1FFF1FA2174A
:104E4000B307E407F50720F0A21BB30BE40BF50B47
:104E5000661F771F881F991F1A9469F760957095D0
:104E6000809590959B01AC01BD01CF010895A29F53
:104E7000B001B39FC001A39F700D811D1124911D2E
:104E8000B29F700D811D1124911D0895EE0FFF1F1B
:104E90000590F491E02D09940F931F93CF93DF9326
:104EA0008230910510F482E090E0E091EA04F09104
:104EB000EB0430E020E0B0E0A0E0309799F4211559
:104EC000310509F44AC0281B390B24303105D8F5C7
:104ED0008A819B816115710589F1FB01938382832E
:104EE000FE0111C040815181028113814817590789
:104EF000E0F04817590799F4109761F012960C9357
:104F0000129713961C933296CF01DF91CF911F9188
:104F10000F9108950093EA041093EB04F4CF211548
:104F2000310551F04217530738F0A901DB019A010E
:104F3000BD01DF01F801C1CFEF01F9CF9093EB0480
:104F40008093EA04CDCFFE01E20FF31F819391938A
:104F50002250310939832883D7CF2091E80430913A
:104F6000E904232B41F4209106013091070130938D
:104F7000E9042093E80420910401309105012115F2
:104F8000310541F42DB73EB7409108015091090118
:104F9000241B350BE091E804F091E904E217F307D4
:104FA000A0F42E1B3F0B2817390778F0AC014E5F99
:104FB0005F4F2417350748F04E0F5F1F5093E904E9
:104FC0004093E804819391939FCFF0E0E0E09CCF81
:104FD000CF93DF930097E9F0FC013297138212829E
:104FE000A091EA04B091EB04ED0130E020E01097CD
:104FF000A1F420813181820F931F2091E804309128
:10500000E9042817390709F061C0F093E904E09337
:10501000E804DF91CF910895EA01CE17DF07E8F5A4
:105020004A815B819E0141155105B1F7E901FB837E
:10503000EA8349915991C40FD51FEC17FD0761F41C
:10504000808191810296840F951FE901998388835D
:10505000828193819B838A83F0E0E0E012968D91B8
:105060009C9113970097B9F52D913C911197CD0123
:105070000296820F931F2091E8043091E9042817CB
:10508000390739F6309751F51092EB041092EA0483
:10509000B093E904A093E804BCCFD383C2834081DA
:1050A0005181840F951FC817D90761F44E5F5F4F78
:1050B00088819981480F591F518340838A819B8140
:1050C000938382832115310509F0B0CFF093EB046F
:1050D000E093EA049ECFFD01DC01C0CF138212826F
:1050E000D7CFF894FFCF010000000000EC0480004F
:1050F00000000000D91D391D661D261E971D751D57
:10510000891D00000000CF20A220FE2078209B20D7
:10511000882079200D0A00464C572054657374008E
:105120002D2D2D2D2D2D2D2D2D2D2D2D2D2D2D2DAF
:105130002D2D2D002053657475702072616E2074C2
:0E5140006F206D616E792074696D65732100BA
:107800000C94343C0C94513C0C94513C0C94513CE1
:107810000C94513C0C94513C0C94513C0C94513CB4
:107820000C94513C0C94513C0C94513C0C94513CA4
:107830000C94513C0C94513C0C94513C0C94513C94
:107840000C94513C0C94513C0C94513C0C94513C84
:107850000C94513C0C94513C0C94513C0C94513C74
:107860000C94513C0C94513C11241FBECFEFD8E036
:10787000DEBFCDBF11E0A0E0B1E0ECE9FFE702C060
:1078800005900D92A230B107D9F712E0A2E0B1E065
:1078900001C01D92AD30B107E1F70E942D3D0C945F
:1078A000CC3F0C94003C982F959595959595959582
:1078B000905D8F708A307CF0282F295A8091C0000B
:1078C00085FFFCCF9093C6008091C00085FFFCCF60
:1078D0002093C6000895282F205DF0CF982F809127
:1078E000C00085FFFCCF9093C6000895EF92FF92F1
:1078F0000F931F93EE24FF2487018091C00087FD22
:1079000017C00894E11CF11C011D111D81E4E8164B
:1079100082E4F8068FE0080780E0180770F3E09132
:107920000401F091050109958091C00087FFE9CF1E
:107930008091C6001F910F91FF90EF9008950E94D3
:10794000763C982F8091C00085FFFCCF9093C600B5
:1079500091362CF490330CF09053892F089597555D
:10796000892F08951F930E949F3C182F0E949F3CCF
:107970001295107F810F1F9108951F93182F882350
:1079800021F00E94763C1150E1F71F9108951F935A
:10799000182F0E94763C803249F0809103018F5F5E
:1079A000809303018530C1F01F9108958091C0003C
:1079B00085FFFCCF84E18093C6008091C00085FFE5
:1079C000FCCF1093C6008091C00085FFFCCF80E102
:1079D0008093C6001F910895E0910401F091050184
:1079E00009951F9108950E94763C803241F0809164
:1079F00003018F5F80930301853081F008958091AA
:107A0000C00085FFFCCF84E18093C6008091C00058
:107A100085FFFCCF80E18093C6000895E0910401CA
:107A2000F09105010995089540E951E08823A1F0FE
:107A30002D9A28EE33E0FA013197F1F721503040CA
:107A4000D1F72D9828EE33E0FA013197F1F7215064
:107A50003040D1F7815061F708953F924F925F9285
:107A60006F927F928F929F92AF92BF92CF92DF924E
:107A7000EF92FF920F931F93CF93DF93000080E16B
:107A80008093C4001092C50088E18093C10086E015
:107A90008093C2005098589A259A81E00E94143D24
:107AA00024E1F22E9EE1E92E85E9D82E0FE0C02ECA
:107AB00010E1B12EAA24A394B1E49B2EA6E58A2E50
:107AC000F2E57F2EE0E26E2E79E4572E63E5462E36
:107AD00050E5352E0E94763C8033B1F18133B9F107
:107AE000803409F46FC0813409F476C0823409F41B
:107AF00085C0853409F488C0803531F1823521F1A3
:107B0000813511F1853509F485C0863509F48DC0BC
:107B1000843609F496C0843709F403C1853709F423
:107B200072C1863709F466C0809103018F5F80932C
:107B30000301853079F6E0910401F0910501099582
:107B40000E94763C803351F60E94F33CC3CF0E94E2
:107B5000763C803249F78091C00085FFFCCFF092DF
:107B6000C6008091C00085FFFCCF9092C600809136
:107B7000C00085FFFCCF8092C6008091C00085FFC9
:107B8000FCCF7092C6008091C00085FFFCCF609250
:107B9000C6008091C00085FFFCCF5092C600809146
:107BA000C00085FFFCCF4092C6008091C00085FFD9
:107BB000FCCF3092C6008091C00085FFFCCFB09210
:107BC000C60088CF0E94763C863808F4BDCF0E945C
:107BD000763C0E94F33C7ECF0E94763C803809F4CC
:107BE0009CC0813809F40BC1823809F43CC1883942
:107BF00009F48FC080E00E94C73C6CCF84E10E94F2
:107C0000BD3C0E94F33C66CF85E00E94BD3C0E94D3
:107C1000F33C60CF0E94763C809306010E94763C44
:107C2000809307010E94F33C55CF0E94763C80333D
:107C300009F41DC183E00E94BD3C80E00E94C73C66
:107C400049CF0E94763C809309020E94763C809343
:107C5000080280910C028E7F80930C020E94763C79
:107C6000853409F415C18091080290910902892B8D
:107C700089F000E010E00E94763CF801E85FFE4FDA
:107C800080830F5F1F4F80910802909109020817AF
:107C9000190788F30E94763C803209F045CF809125
:107CA0000C0280FF01C16091060170910701660F0F
:107CB000771F7093070160930601A0910802B091AD
:107CC00009021097C9F0E8E0F1E09B01AD014E0F09
:107CD0005F1FF999FECF32BD21BD819180BDFA9A17
:107CE000F99A2F5F3F4FE417F50799F76A0F7B1F4B
:107CF00070930701609306018091C00085FFFCCF5F
:107D0000F092C6008091C00085FFFCCFB092C60003
:107D1000E1CE83E00E94C73CDDCE82E00E94C73CFA
:107D2000D9CE0E94763C809309020E94763C8093D3
:107D300008028091060190910701880F991F909386
:107D40000701809306010E94763C853409F4A6C0A1
:107D500080910C028E7F80930C020E94763C8032D0
:107D600009F0B8CE8091C00085FFFCCFF092C6002C
:107D7000609108027091090261157105B9F140E046
:107D800050E080910C02A82FA170B82FB27011C0E2
:107D9000BB2309F45CC0E0910601F0910701319624
:107DA000F0930701E09306014F5F5F4F46175707B7
:107DB000E8F4AA2369F3F999FECF209106013091E6
:107DC000070132BD21BDF89A90B58091C00085FFB2
:107DD000FCCF9093C6002F5F3F4F30930701209355
:107DE00006014F5F5F4F4617570718F38091C00099
:107DF00085FDE5CE8091C00085FFF8CFE0CE81E023
:107E00000E94C73C67CE0E94763C803209F08CCE3F
:107E10008091C00085FFFCCFF092C6008091C00029
:107E200085FFFCCFE092C6008091C00085FFFCCFAB
:107E3000D092C6008091C00085FFFCCFC092C600E2
:107E40008091C00085FFFCCFB092C60043CEE09188
:107E50000601F091070194918091C00085FFFCCF4D
:107E60009093C6009CCF80E10E94C73C33CE0E9415
:107E7000763C0E94763C182F0E94763C112309F430
:107E800083C0113009F484C08FE00E94C73C22CE29
:107E900080910C02816080930C02E5CE80910C02EF
:107EA000816080930C0259CF809107018823880F4D
:107EB000880B8A2180930B02809106019091070123
:107EC000880F991F90930701809306018091080203
:107ED00080FF09C080910802909109020196909359
:107EE000090280930802F894F999FECF1127E091D6
:107EF0000601F0910701C8E0D1E08091080290915D
:107F00000902103091F40091570001700130D9F34B
:107F100003E000935700E89500915700017001308D
:107F2000D9F301E100935700E89509901990009169
:107F3000570001700130D9F301E000935700E89534
:107F40001395103498F011270091570001700130FB
:107F5000D9F305E000935700E895009157000170B0
:107F60000130D9F301E100935700E895329602976A
:107F700009F0C7CF103011F00296E5CF112480919F
:107F8000C00085FFB9CEBCCE8EE10E94C73CA2CD19
:0E7F900085E90E94C73C9ECDF894FFCF80008B
:00000001FF
